{
  "contractName": "StudentInfo",
  "abi": [
    {
      "constant": false,
      "inputs": [
        {
          "internalType": "string",
          "name": "_name",
          "type": "string"
        }
      ],
      "name": "setName",
      "outputs": [],
      "payable": false,
      "stateMutability": "nonpayable",
      "type": "function"
    },
    {
      "constant": false,
      "inputs": [
        {
          "internalType": "uint256",
          "name": "_roll",
          "type": "uint256"
        }
      ],
      "name": "setRoll",
      "outputs": [],
      "payable": false,
      "stateMutability": "nonpayable",
      "type": "function"
    },
    {
      "constant": false,
      "inputs": [
        {
          "internalType": "string",
          "name": "_hall",
          "type": "string"
        }
      ],
      "name": "setHall",
      "outputs": [],
      "payable": false,
      "stateMutability": "nonpayable",
      "type": "function"
    },
    {
      "constant": true,
      "inputs": [],
      "name": "getName",
      "outputs": [
        {
          "internalType": "string",
          "name": "",
          "type": "string"
        }
      ],
      "payable": false,
      "stateMutability": "view",
      "type": "function"
    },
    {
      "constant": true,
      "inputs": [],
      "name": "getRoll",
      "outputs": [
        {
          "internalType": "uint256",
          "name": "",
          "type": "uint256"
        }
      ],
      "payable": false,
      "stateMutability": "view",
      "type": "function"
    },
    {
      "constant": true,
      "inputs": [],
      "name": "getHall",
      "outputs": [
        {
          "internalType": "string",
          "name": "",
          "type": "string"
        }
      ],
      "payable": false,
      "stateMutability": "view",
      "type": "function"
    },
    {
      "constant": true,
      "inputs": [],
      "name": "helloWorld",
      "outputs": [
        {
          "internalType": "string",
          "name": "",
          "type": "string"
        }
      ],
      "payable": false,
      "stateMutability": "pure",
      "type": "function"
    },
    {
      "constant": true,
      "inputs": [],
      "name": "getABCD",
      "outputs": [
        {
          "internalType": "uint256",
          "name": "",
          "type": "uint256"
        }
      ],
      "payable": false,
      "stateMutability": "view",
      "type": "function"
    }
  ],
  "bytecode": "0x608060405234801561001057600080fd5b506106ad806100206000396000f3fe608060405234801561001057600080fd5b50600436106100885760003560e01c8063c47f00271161005b578063c47f00271461026c578063c605f76c14610327578063c736694e146103aa578063ce4b3534146103c857610088565b806301de4df71461008d57806317d7de7c14610110578063a68316ea14610193578063ab4393b8146101b1575b600080fd5b6100956103f6565b6040518080602001828103825283818151815260200191508051906020019080838360005b838110156100d55780820151818401526020810190506100ba565b50505050905090810190601f1680156101025780820380516001836020036101000a031916815260200191505b509250505060405180910390f35b610118610498565b6040518080602001828103825283818151815260200191508051906020019080838360005b8381101561015857808201518184015260208101905061013d565b50505050905090810190601f1680156101855780820380516001836020036101000a031916815260200191505b509250505060405180910390f35b61019b61053a565b6040518082815260200191505060405180910390f35b61026a600480360360208110156101c757600080fd5b81019080803590602001906401000000008111156101e457600080fd5b8201836020820111156101f657600080fd5b8035906020019184600183028401116401000000008311171561021857600080fd5b91908080601f016020809104026020016040519081016040528093929190818152602001838380828437600081840152601f19601f820116905080830192505050505050509192919290505050610544565b005b6103256004803603602081101561028257600080fd5b810190808035906020019064010000000081111561029f57600080fd5b8201836020820111156102b157600080fd5b803590602001918460018302840111640100000000831117156102d357600080fd5b91908080601f016020809104026020016040519081016040528093929190818152602001838380828437600081840152601f19601f82011690508083019250505050505050919291929050505061055e565b005b61032f610578565b6040518080602001828103825283818151815260200191508051906020019080838360005b8381101561036f578082015181840152602081019050610354565b50505050905090810190601f16801561039c5780820380516001836020036101000a031916815260200191505b509250505060405180910390f35b6103b26105b5565b6040518082815260200191505060405180910390f35b6103f4600480360360208110156103de57600080fd5b81019080803590602001909291905050506105bf565b005b606060028054600181600116156101000203166002900480601f01602080910402602001604051908101604052809291908181526020018280546001816001161561010002031660029004801561048e5780601f106104635761010080835404028352916020019161048e565b820191906000526020600020905b81548152906001019060200180831161047157829003601f168201915b5050505050905090565b606060008054600181600116156101000203166002900480601f0160208091040260200160405190810160405280929190818152602001828054600181600116156101000203166002900480156105305780601f1061050557610100808354040283529160200191610530565b820191906000526020600020905b81548152906001019060200180831161051357829003601f168201915b5050505050905090565b6000600154905090565b806002908051906020019061055a9291906105d3565b5050565b80600090805190602001906105749291906105d3565b5050565b60606040518060400160405280600b81526020017f48656c6c6f20576f726c64000000000000000000000000000000000000000000815250905090565b6000600354905090565b806001819055508060020260038190555050565b828054600181600116156101000203166002900490600052602060002090601f016020900481019282601f1061061457805160ff1916838001178555610642565b82800160010185558215610642579182015b82811115610641578251825591602001919060010190610626565b5b50905061064f9190610653565b5090565b61067591905b80821115610671576000816000905550600101610659565b5090565b9056fea265627a7a72315820349f8b20e050cd033813ec906141b5e3117b63db3e980093b1812a140fb9b0fb64736f6c63430005100032",
  "source": "pragma solidity >=0.4.22 <0.7.0;\n\ncontract StudentInfo {\n    string name;\n    uint roll;\n    string hall;\n    uint abcd;\n\n    function setName(string memory _name) public {\n        name = _name;\n    }\n    function setRoll(uint _roll) public {\n        roll = _roll;\n        abcd = 2*_roll;\n    }\n    \n    function setHall(string memory _hall) public {\n        hall = _hall;\n    }\n    \n    function getName() public view returns (string memory) {\n        return name;\n    }\n    function getRoll() public view returns(uint) {\n        return roll;\n    }\n    function getHall() public view returns(string memory) {\n        return hall;\n    }\n    \n    function helloWorld() public pure returns(string memory) {\n        return \"Hello World\";\n    }  \n\n    function getABCD() public view returns(uint) {\n        return abcd;\n    }  \n}",
  "sourcePath": "/home/fenris/Desktop/demo2/contracts/studentInfo.sol",
  "compiler": {
    "name": "solc",
    "version": "0.5.16+commit.9c3226ce.Emscripten.clang"
  },
  "schemaVersion": "3.2.3",
  "updatedAt": "2020-11-13T06:12:39.740Z",
  "networkType": "ethereum",
  "devdoc": {
    "methods": {}
  },
  "userdoc": {
    "methods": {}
  }
}