{
  "contractName": "StudentGrade",
  "abi": [
    {
      "constant": false,
      "inputs": [
        {
          "internalType": "uint16[5]",
          "name": "_subjects",
          "type": "uint16[5]"
        }
      ],
      "name": "setsubjects",
      "outputs": [],
      "payable": false,
      "stateMutability": "nonpayable",
      "type": "function"
    },
    {
      "constant": false,
      "inputs": [
        {
          "internalType": "uint16[5]",
          "name": "_credits",
          "type": "uint16[5]"
        }
      ],
      "name": "setcredits",
      "outputs": [],
      "payable": false,
      "stateMutability": "nonpayable",
      "type": "function"
    },
    {
      "constant": false,
      "inputs": [
        {
          "internalType": "uint256",
          "name": "subjectId",
          "type": "uint256"
        },
        {
          "internalType": "string",
          "name": "_grade",
          "type": "string"
        }
      ],
      "name": "setgrade",
      "outputs": [],
      "payable": false,
      "stateMutability": "nonpayable",
      "type": "function"
    },
    {
      "constant": true,
      "inputs": [],
      "name": "calculateSGPA",
      "outputs": [
        {
          "internalType": "uint256",
          "name": "",
          "type": "uint256"
        }
      ],
      "payable": false,
      "stateMutability": "view",
      "type": "function"
    }
  ],
  "bytecode": "0x608060405234801561001057600080fd5b506109f0806100206000396000f3fe608060405234801561001057600080fd5b506004361061004c5760003560e01c80633893be8c14610051578063a6bae040146100b6578063d13369371461017b578063ecb28d8d146101e0575b600080fd5b6100b4600480360360a081101561006757600080fd5b810190808060a001906005806020026040519081016040528092919082600560200280828437600081840152601f19601f82011690508083019250505050505091929192905050506101fe565b005b610179600480360360408110156100cc57600080fd5b8101908080359060200190929190803590602001906401000000008111156100f357600080fd5b82018360208201111561010557600080fd5b8035906020019184600183028401116401000000008311171561012757600080fd5b91908080601f016020809104026020016040519081016040528093929190818152602001838380828437600081840152601f19601f820116905080830192505050505050509192919290505050610249565b005b6101de600480360360a081101561019157600080fd5b810190808060a001906005806020026040519081016040528092919082600560200280828437600081840152601f19601f8201169050808301925050505050509192919290505050610270565b005b6101e86102bb565b6040518082815260200191505060405180910390f35b6000809050600090505b60058110156102455781816005811061021d57fe5b602002015161ffff166005826005811061023357fe5b01819055508080600101915050610208565b5050565b80600a836005811061025757fe5b01908051906020019061026b929190610916565b505050565b6000809050600090505b60058110156102b75781816005811061028f57fe5b602002015161ffff16600082600581106102a557fe5b0181905550808060010191505061027a565b5050565b60008060009050600080905060008090506000809050600093505b60058410156109035760405160200180807f4500000000000000000000000000000000000000000000000000000000000000815250600101905060405160208183030381529060405280519060200120600a856005811061033357fe5b0160405160200180828054600181600116156101000203166002900480156103925780601f10610370576101008083540402835291820191610392565b820191906000526020600020905b81548152906001019060200180831161037e575b50509150506040516020818303038152906040528051906020012014156103b857600a90505b60405160200180807f4100000000000000000000000000000000000000000000000000000000000000815250600101905060405160208183030381529060405280519060200120600a856005811061040c57fe5b01604051602001808280546001816001161561010002031660029004801561046b5780601f1061044957610100808354040283529182019161046b565b820191906000526020600020905b815481529060010190602001808311610457575b505091505060405160208183030381529060405280519060200120141561049157600990505b60405160200180807f4200000000000000000000000000000000000000000000000000000000000000815250600101905060405160208183030381529060405280519060200120600a85600581106104e557fe5b0160405160200180828054600181600116156101000203166002900480156105445780601f10610522576101008083540402835291820191610544565b820191906000526020600020905b815481529060010190602001808311610530575b505091505060405160208183030381529060405280519060200120141561056a57600890505b60405160200180807f4300000000000000000000000000000000000000000000000000000000000000815250600101905060405160208183030381529060405280519060200120600a85600581106105be57fe5b01604051602001808280546001816001161561010002031660029004801561061d5780601f106105fb57610100808354040283529182019161061d565b820191906000526020600020905b815481529060010190602001808311610609575b505091505060405160208183030381529060405280519060200120141561064357600790505b60405160200180807f4400000000000000000000000000000000000000000000000000000000000000815250600101905060405160208183030381529060405280519060200120600a856005811061069757fe5b0160405160200180828054600181600116156101000203166002900480156106f65780601f106106d45761010080835404028352918201916106f6565b820191906000526020600020905b8154815290600101906020018083116106e2575b505091505060405160208183030381529060405280519060200120141561071c57600690505b60405160200180807f5000000000000000000000000000000000000000000000000000000000000000815250600101905060405160208183030381529060405280519060200120600a856005811061077057fe5b0160405160200180828054600181600116156101000203166002900480156107cf5780601f106107ad5761010080835404028352918201916107cf565b820191906000526020600020905b8154815290600101906020018083116107bb575b50509150506040516020818303038152906040528051906020012014156107f557600590505b60405160200180807f4600000000000000000000000000000000000000000000000000000000000000815250600101905060405160208183030381529060405280519060200120600a856005811061084957fe5b0160405160200180828054600181600116156101000203166002900480156108a85780601f106108865761010080835404028352918201916108a8565b820191906000526020600020905b815481529060010190602001808311610894575b50509150506040516020818303038152906040528051906020012014156108ce57600090505b600584600581106108db57fe5b01548301925080600585600581106108ef57fe5b0154028201915083806001019450506102d6565b82828161090c57fe5b0494505050505090565b828054600181600116156101000203166002900490600052602060002090601f016020900481019282601f1061095757805160ff1916838001178555610985565b82800160010185558215610985579182015b82811115610984578251825591602001919060010190610969565b5b5090506109929190610996565b5090565b6109b891905b808211156109b457600081600090555060010161099c565b5090565b9056fea265627a7a7231582063a49cbc3473340068a4db6f466ff750ed08ad850c8d904d84388e962d17f86864736f6c63430005100032",
  "source": "// SPDX-License-Identifier: MIT\npragma solidity >=0.4.22 <0.8.0;\n\ncontract StudentGrade {\n    uint[5] subjects;\n    uint[5] credits;\n    string[5] grade;\n\n    function setsubjects(uint16[5] memory _subjects) public {\n        // uint16[5] memory _subjects = [60003,60016,60010,60042,47006];\n        uint  _i = 0;\n        for(_i = 0;_i<5;_i++){\n            subjects[_i] = _subjects[_i];\n        }\n    }    \n\n    function setcredits(uint16[5] memory _credits) public {\n        // uint16[5] memory _subjects = [60003,60016,60010,60042,47006];\n        uint  _i = 0;\n        for(_i = 0;_i<5;_i++){\n            credits[_i] = _credits[_i];\n        }\n    }\n\n    function setgrade(uint subjectId, string memory _grade) public {\n        grade[subjectId] = _grade;\n    }\n\n    function calculateSGPA() public view returns(uint) {\n        uint _i = 0;\n        uint _totalCred = 0;\n        uint _totalGradePoints = 0;\n        uint _gradePoint = 0;\n        for(_i=0;_i<5;_i++){    \n            if(keccak256(abi.encodePacked(grade[_i]))==keccak256(abi.encodePacked(\"E\"))){\n                _gradePoint=10;\n            }\n            if(keccak256(abi.encodePacked(grade[_i]))==keccak256(abi.encodePacked(\"A\"))){\n                _gradePoint=9;\n            }\n            if(keccak256(abi.encodePacked(grade[_i]))==keccak256(abi.encodePacked(\"B\"))){\n                _gradePoint=8;\n            }\n            if(keccak256(abi.encodePacked(grade[_i]))==keccak256(abi.encodePacked(\"C\"))){\n                _gradePoint=7;\n            }\n            if(keccak256(abi.encodePacked(grade[_i]))==keccak256(abi.encodePacked(\"D\"))){\n                _gradePoint=6;\n            }\n            if(keccak256(abi.encodePacked(grade[_i]))==keccak256(abi.encodePacked(\"P\"))){\n                _gradePoint=5;\n            }\n            if(keccak256(abi.encodePacked(grade[_i]))==keccak256(abi.encodePacked(\"F\"))){\n                _gradePoint=0;\n            }\n            _totalCred += credits[_i];\n            _totalGradePoints += credits[_i] * _gradePoint;\n\n        }\n        return _totalGradePoints / _totalCred;\n    }\n}",
  "sourcePath": "/media/saketh/Local Disk/Academic/Advanced Database systems/Assignments/Assignment 7/asgn/contracts/studentGrade.sol",
  "compiler": {
    "name": "solc",
    "version": "0.5.16+commit.9c3226ce.Emscripten.clang"
  },
  "schemaVersion": "3.3.2",
  "updatedAt": "2020-11-20T17:31:18.322Z",
  "networkType": "ethereum",
  "devdoc": {
    "methods": {}
  },
  "userdoc": {
    "methods": {}
  }
}